:100000000C9462000C948A000C948A000C948A0070
:100010000C948A000C948A000C948A000C948A0038
:100020000C948A000C948A000C948A000C948A0028
:100030000C948A000C948A000C948A000C948A0018
:100040000C940D060C948A000C94DB050C94B505F9
:100050000C948A000C948A000C948A000C948A00F8
:100060000C948A000C948A000000000024002700F1
:100070002A0000000000250028002B0000000000DE
:1000800023002600290004040404040404040202DA
:100090000202020203030303030301020408102007
:1000A0004080010204081020010204081020000012
:1000B0000008000201000003040700000000000027
:1000C0000000570611241FBECFEFD8E0DEBFCDBF22
:1000D00022E0A6E8B1E001C01D92AA39B207E1F71B
:1000E00011E0A0E0B1E0E6EEF4E102C005900D926F
:1000F000A638B107D9F710E0C2E6D0E004C02197D6
:10010000FE010E946B0AC136D107C9F70E94B306EF
:100110000C94710A0C940000AF92BF92CF92DF92C0
:10012000EF92FF920F931F93CF93DF936C017B01AC
:100130008B01040F151FEB015E01AE18BF08C0173D
:10014000D10759F06991D601ED91FC910190F081B0
:10015000E02DC6010995892B79F7C501DF91CF9173
:100160001F910F91FF90EF90DF90CF90BF90AF90D5
:100170000895FC01538D448D252F30E0842F90E0AD
:10018000821B930B541710F0CF9608950197089592
:10019000FC01918D828D981761F0A28DAE0FBF2F5B
:1001A000B11D5D968C91928D9F5F9F73928F90E0B1
:1001B00008958FEF9FEF0895FC01918D828D981720
:1001C00031F0828DE80FF11D858D90E008958FEF5D
:1001D0009FEF0895FC01918D228D892F90E0805C26
:1001E0009F4F821B91098F73992708958FE991E0A2
:1001F0000E94EA0021E0892B09F420E0822F089573
:1002000080E090E0892B29F00E94F60081110C9487
:1002100000000895FC01A48DA80FB92FB11DA35AA9
:10022000BF4F2C91848D90E001968F739927848F16
:10023000A689B7892C93A089B1898C918370806439
:100240008C93938D848D981306C00288F389E02DDA
:1002500080818F7D80830895EF92FF920F931F938B
:10026000CF93DF93EC0181E0888F9B8D8C8D981369
:100270001AC0E889F989808185FF15C09FB7F89475
:10028000EE89FF896083E889F989808183708064C1
:1002900080839FBF81E090E0DF91CF911F910F910C
:1002A000FF90EF900895F62E0B8D10E00F5F1F4F1B
:1002B0000F731127E02E8C8D8E110CC00FB607FC2A
:1002C000FACFE889F989808185FFF5CFCE010E94B8
:1002D0000A01F1CFEB8DEC0FFD2FF11DE35AFF4F1B
:1002E000F0829FB7F8940B8FEA89FB898081806246
:1002F000CFCFCF93DF93EC01888D8823B9F0AA8903
:10030000BB89E889F9898C9185FD03C0808186FDD0
:100310000DC00FB607FCF7CF8C9185FFF2CF80811F
:1003200085FFEDCFCE010E940A01E9CFDF91CF9189
:100330000895833081F028F4813099F08230A9F05B
:1003400008958730A9F08830C9F08430B1F48091E5
:1003500080008F7D03C0809180008F778093800024
:10036000089584B58F7784BD089584B58F7DFBCFC4
:100370008091B0008F778093B00008958091B00095
:100380008F7DF9CFCF93DF93282F30E0F901E2552D
:10039000FF4F8491F901E656FF4FD491F901EA57D6
:1003A000FF4FC491CC23A1F081110E949901EC2F41
:1003B000F0E0EE0FFF1FE458FF4FA591B491EC91D0
:1003C000ED2381E090E009F480E0DF91CF91089582
:1003D00080E090E0FACF1F93CF93DF93282F30E097
:1003E000F901E255FF4F8491F901E656FF4FD49190
:1003F000F901EA57FF4FC491CC23A9F0162F8111C0
:100400000E949901EC2FF0E0EE0FFF1FEE58FF4F16
:10041000A591B4918FB7F894EC91111108C0D095C3
:10042000DE23DC938FBFDF91CF911F910895DE2BE8
:10043000F8CFCF93DF9390E0FC01E656FF4F249175
:100440008A579F4FFC0184918823D1F090E0880F58
:10045000991FFC01E859FF4FA591B491FC01EE589A
:10046000FF4FC591D49161110EC09FB7F8948C9144
:10047000E22FE0958E238C932881E223E8839FBFAF
:10048000DF91CF9108958FB7F894EC91E22BEC9324
:100490008FBFF6CF3FB7F89480918F019091900174
:1004A000A0919101B091920126B5A89B05C02F3F64
:1004B00019F00196A11DB11D3FBFBA2FA92F982F8A
:1004C0008827BC01CD01620F711D811D911D42E085
:1004D000660F771F881F991F4A95D1F708958F924D
:1004E0009F92AF92BF92CF92DF92EF92FF924B0119
:1004F0005C010E944A026B017C010E944A026C1955
:100500007D098E099F09683E734081059105A8F316
:1005100021E0821A9108A108B10888EEC80E83E094
:10052000D81EE11CF11C81149104A104B10429F727
:10053000FF90EF90DF90CF90BF90AF909F908F9003
:1005400008952FB7F89460918B0170918C01809180
:100550008D0190918E012FBF0895089590E080E065
:1005600008951F93CF93DF93182F60E00E94EB0153
:10057000C4E0D0E061E0812F0E94EB0164EF71E004
:1005800080E090E00E946F0260E0812F0E94EB010A
:1005900064EF71E080E090E00E946F02219751F7D4
:1005A000DF91CF911F9108958091000190910101F9
:1005B000892B41F461E08EE00E94EB0160E08FE066
:1005C0000C94EB0160E08EE00E94EB0161E0F7CF5C
:1005D000FC01842F662331F0208131812F5F3F4F52
:1005E000318320838823F1F0208131811216130694
:1005F0002CF04281538114161506A4F421503109C0
:100600003183208337FF0FC02281338112161306F6
:1006100054F44AE050E05183408321503109338340
:1006200022830895862F08959C01FB01EA57FE4F0F
:1006300080818217130631F081E0232B09F480E0DA
:100640008083089580E00895CF93DF93EC0160E00C
:100650008E810E94EB0161E08E810E94EB0160E0DF
:100660008E810E94EB018BE891E00197F1F7DF9119
:10067000CF910895CF92DF92EF92FF920F931F9345
:10068000CF93DF936C017C0187E0E80EF11CD0E092
:10069000C0E0062F10E0B8010C2E02C075956795DA
:1006A0000A94E2F76170F70181917F010E94EB01EA
:1006B0002196C430D10579F7C601DF91CF911F9102
:1006C0000F91FF90EF90DF90CF900C942403CF9286
:1006D000DF92EF92FF920F931F93CF93DF93EC0182
:1006E000F62E642F8C810E94EB018D818F3F19F0D3
:1006F00060E00E94EB010F2D10E08F8584FF25C084
:100700006E0187E0C80ED11CF12CE12CB8010E2C33
:1007100002C0759567950A94E2F76170F6018191C0
:100720006F010E94EB01FFEFEF1AFF0A88E0E81665
:10073000F10461F7CE01DF91CF911F910F91FF90EE
:10074000EF90DF90CF900C942403B80184E075956E
:1007500067958A95E1F7CE010E943A036F2DCE018D
:10076000DF91CF911F910F91FF90EF90DF90CF908D
:100770000C943A0340E0682F82E892E00C946703FF
:1007800081E00E94BA038BE39FE10197F1F708959E
:10079000CF93DF93823029F49091910298609093E7
:1007A0009102809395021092960280E480939702C2
:1007B00080E18093980280E58093990261E08091C6
:1007C00086020E941902809187028F3F19F061E032
:1007D0000E94190261E0809188020E941902C2E819
:1007E000D2E09E01225832408091910284FD0BC0DC
:1007F00084E090E021962817390744F461E08E8167
:100800000E941902EECF88E090E0F4CF8BE39DE0E8
:100810000197F1F760E0809186020E94EB0160E0B1
:10082000809188020E94EB01809187028F3F19F02E
:1008300060E00E94EB018091910284FD34C063E08E
:1008400082E892E00E943A03CBE4D6E4CE0101971D
:10085000F1F763E082E892E00E943A032197F1F712
:1008600063E082E892E00E943A0383E592E0019718
:10087000F1F762E082E892E00E943A0380919102EF
:1008800080620E94BA0384E0809392028CE00E940E
:10089000BA030E94C00382E08093930286E0DF9156
:1008A000CF910C94BA0380620E94BA038BE496E461
:1008B0000197F1F78091910280620E94BA0383E56B
:1008C00092E00197F1F78091910280620E94BA0351
:1008D000D5CF90919502691710F06FEF690FE62F51
:1008E000F0E0EE57FD4F9489890F80680C94BA03AD
:1008F00041E00E94670381E090E00895EF92FF924B
:100900000F931F93CF93DF9300D000D0CDB7DEB706
:100910008FE991E00E94C8008FE991E00E94C80031
:100920008E010F5F1F4F78018A3341F0F8018193E8
:100930008F018FE991E00E94C800F6CFC7010E94A5
:10094000230A182F8FE991E00E94C8008053990B69
:100950008230910520F4682F812F0E94EB018FE9EE
:1009600091E00E94C8008A3011F08D30C1F78FE904
:1009700091E00E94DC008A3021F48FE991E00E942E
:10098000C8000F900F900F900F90DF91CF911F91A3
:100990000F91FF90EF900895FB0101900020E9F77F
:1009A0003197AF01461B570BDC01ED91FC910280A2
:1009B000F381E02D09948F929F92AF92BF92EF92B4
:1009C000FF920F931F93CF93DF93CDB7DEB7A1971D
:1009D0000FB6F894DEBF0FBECDBF7C01FA01CB018C
:1009E00019A2223008F42AE08E010F5D1F4F822EDB
:1009F000912CB12CA12CBF01A50194010E94490AA0
:100A0000F901CA016A300CF5605DD8016E938D0161
:100A1000232B242B252B79F790E080E0109721F0F1
:100A2000BD01C7010E94CC04A1960FB6F894DEBFA9
:100A30000FBECDBFDF91CF911F910F91FF90EF902F
:100A4000BF90AF909F908F900895695CDECFCF925A
:100A5000DF92EF92FF926C01990FEE08FF08F7FE0C
:100A600018C041E06DE282E892E00E9467034427EB
:100A70005527BA014C195D096E097F092AE082E801
:100A800092E00E94DB040196FF90EF90DF90CF9000
:100A900008952AE0B701A60182E892E0FF90EF9066
:100AA000DF90CF900C94DB040C94CC04CF93DF93B5
:100AB000EC0160E081E00E946904BE0182E892E0FE
:100AC0000E94540560E08BE00E946904BE0182E848
:100AD00092E00E94540564EF71E080E090E0DF91C5
:100AE000CF910C946F02CF93DF930E94C00360E01C
:100AF00080E00E94690464E271E082E892E00E9472
:100B00005405C7E9D1E08A819B810E94270561E0F5
:100B100080E00E9469046AE271E082E892E00E944B
:100B20005405888199810E94270560E08AE00E942F
:100B300069046FE271E082E892E00E945405C3E923
:100B4000D1E08A819B810E94270561E08AE00E94B2
:100B5000690465E371E082E892E00E9454058881AF
:100B60009981DF91CF910C9427051F920F920FB6B8
:100B70000F9211242F933F934F935F936F937F9323
:100B80008F939F93AF93BF93EF93FF938FE991E080
:100B90000E940A01FF91EF91BF91AF919F918F91B8
:100BA0007F916F915F914F913F912F910F900FBE69
:100BB0000F901F9018951F920F920FB60F9211244D
:100BC0002F938F939F93EF93FF93E091AF01F09159
:100BD000B0018081E091B501F091B60182FD1BC0AA
:100BE00090818091B8018F5F8F732091B901821736
:100BF00041F0E091B801F0E0E156FE4F958F80930F
:100C0000B801FF91EF919F918F912F910F900FBE9F
:100C10000F901F9018958081F4CF1F920F920FB6FE
:100C20000F9211242F933F938F939F93AF93BF9372
:100C300080918B0190918C01A0918D01B0918E01DA
:100C400030918A0123E0230F2D3758F50196A11D1D
:100C5000B11D20938A0180938B0190938C01A09306
:100C60008D01B0938E0180918F0190919001A091A0
:100C70009101B09192010196A11DB11D80938F0148
:100C800090939001A0939101B0939201BF91AF9185
:100C90009F918F913F912F910F900FBE0F901F90BA
:100CA000189526E8230F0296A11DB11DD2CFEFE9BA
:100CB000F1E01382128288EE93E0A0E0B0E084833A
:100CC0009583A683B7838AE091E09183808385EC46
:100CD00090E09587848784EC90E09787868780EC06
:100CE00090E0918B808B81EC90E0938B828B82ECF7
:100CF00090E0958B848B86EC90E0978B868B118EA1
:100D0000128E138E148EECE3F2E016821782108698
:100D10001186128613861486158616861786108A03
:100D2000118A128A138A148A158AE2E8F2E0138281
:100D300012828CE191E0918380838CE084838FEF39
:100D400085838BE0868385E0878384E0808783E0EA
:100D5000818782E082871386148615861686178619
:100D600081E00C94C803789484B5826084BD84B516
:100D7000816084BD85B5826085BD85B5816085BD96
:100D800080916E00816080936E001092810080914E
:100D900081008260809381008091810081608093D6
:100DA0008100809180008160809380008091B100FB
:100DB00084608093B1008091B00081608093B00026
:100DC00080917A00846080937A0080917A008260BA
:100DD00080937A0080917A00816080937A0080917C
:100DE0007A00806880937A001092C10010927E028F
:100DF00010927F02109280021092810210923E02A5
:100E000010923F0210924002109241020E94A102F1
:100E10006B017C014B015C0128EB820E2BE0921EE2
:100E2000A11CB11C0E94A1026C157D058E059F05B9
:100E300028F086169706A806B906A0F768EE73E0B4
:100E400080E090E00E946F02E091AF01F091B0016C
:100E500082E08083E091AB01F091AC011082E091DF
:100E6000AD01F091AE0180E180831092B701E09175
:100E7000B301F091B40186E08083E091B101F0917B
:100E8000B201808180618083E091B101F091B20173
:100E9000808188608083E091B101F091B20180810E
:100EA00080688083E091B101F091B20180818F7DF3
:100EB00080830E94A10260933E0270933F02809360
:100EC0004002909341026AE371E08FE991E00E9451
:100ED00054050E94A1026B017C014B015C013AE0C8
:100EE000830E911CA11CB11C0E94A1026C157D05F2
:100EF0008E059F0528F086169706A806B906A0F766
:100F000081E0809352020E94A10260933E0270939E
:100F10003F0280934002909341026BE471E08FE9BD
:100F200091E00E94540560E087E00E94190260E0B1
:100F300088E00E94190260E089E00E94190260E0E6
:100F40008AE00E94190261E08EE00E94190261E0CD
:100F50008FE00E94190282E00E94C8030E9473057C
:100F60000E94D40200E010E054EF452E5524539423
:100F7000612C712CCFEFDFEF0E94A102672B682B51
:100F8000692B09F408C10E94A102C0909B01D09076
:100F90009C01E0909D01F0909E016C157D058E05F1
:100FA0009F0508F4D7C1C0909B01D0909C01E090B0
:100FB0009D01F0909E019B01AC012C193D094E0949
:100FC0005F0969017A013AEFC316D104E104F10423
:100FD00008F4E9C060939B0170939C0180939D018C
:100FE00090939E0140924A0250924B0260924C02B2
:100FF00070924D0210924E0210924F0210925002C7
:10100000109251028091420290914302A0914402B9
:10101000B09145028093460290934702A093480204
:10102000B09349020E94A10260934202709343026E
:1010300080934402909345028FE991E00E94DC0086
:10104000843611F40E947E040E94A10260933E0245
:1010500070933F0280934002909341020E94A1024C
:101060006B017C0162E571E08FE991E00E9454051B
:101070002AE041E050E060E070E08FE991E00E94FA
:10108000DB0469E571E08FE991E00E9454052AE0F4
:10109000B701A6018FE991E00E94DB046BE571E0E6
:1010A0008FE991E00E9454058091420290914302A1
:1010B000A0914402B0914502B701A601481B590B0B
:1010C0006A0B7B0B2AE08FE991E00E94DB046BE561
:1010D00071E08FE991E00E945405409142025091E5
:1010E00043026091440270914502809146029091C2
:1010F0004702A0914802B0914902481B590B6A0B64
:101100007B0B2AE08FE991E00E94DB046DE571E042
:101110008FE991E00E9454050E94A102AB01BC013D
:101120002AE08FE991E00E94DB046FE571E08FE92E
:1011300091E00E94CC0466E671E08FE991E00E94A4
:10114000CC040E94A1026B017C014B015C0142E0D6
:10115000840E911CA11CB11C0E94A1026C157D057E
:101160008E059F0528F086169706A806B906A0F7F3
:101170008FE991E00E94DC00843611F40E947E0425
:101180000E94A10260934202709343028093440242
:101190009093450208C00E94A1026230710581054A
:1011A000910508F0F0CE87E00E94C20170E060E097
:1011B0000E941403F82E88E00E94C20161E070E0F2
:1011C0000E941403C82E89E00E94C20162E070E010
:1011D0000E941403E82E8AE00E94C20163E070E0DE
:1011E0000E941403D82E4C2D6F2D87E991E00E94A8
:1011F000E802F82E4D2D6E2D83E991E00E94E80261
:10120000811103C0FF2009F499C06091970170918A
:10121000980140919301509194012091990130914E
:101220009A016B30710524F44B3051050CF4B9C0B0
:10123000CB01841B950B97FF03C091958195910974
:1012400002970CF4AEC0461757070CF08CC02F5F06
:101250003F4F30939A01209399011092030110920D
:10126000020110929801109297011092940110922D
:1012700093018091990190919A01039709F083C09D
:101280001092050110920401E0900401F090050114
:101290005FEFE516F50609F4A6C060E08EE00E9457
:1012A000EB0160E08FE00E94EB010E94C00360E070
:1012B00083E00E94690469E671E0EF2811F062E7BB
:1012C00071E082E892E00E94540561E085E00E94AE
:1012D00069046BE771E082E892E00E94540584E0C3
:1012E000E82EF12C80E891E00E94560583E891E019
:1012F0000E94560581E0E81AF108A1F710929801C2
:1013000010929701109294011092930110929A01F9
:10131000109299011092960110929501109201017C
:1013200010920001D0930301C0930201D0930501F4
:10133000C09304010E9473050E94D4020115110597
:1013400009F41ACE0E94F600882309F415CE0E94F3
:10135000000012CE60939B0170939C0180939D01CD
:1013600090939E0120CE80919501909196010196D7
:10137000909396018093950181E090E09093030112
:10138000809302016ECF8091950190919601039711
:1013900009F07ACF81E090E09093050180930401F9
:1013A00073CFCB01840F951FE0919501F0919601C9
:1013B0002E0F3F1F217033276A30710564F04A30C9
:1013C00051054CF0232B61F4817099279093010112
:1013D0008093000159CF97FD019695958795F2CF9F
:1013E00080959095F1CF8091020190910301019633
:1013F000F9F00E947305809102019091030100971A
:1014000069F460E08FE00E94EB018EE090E00E94C2
:10141000B102F0920301E09202018ECF019709F030
:101420008BCF60E08EE00E94EB018FE090E0EFCF89
:101430000E9473050E94D4026AEF70E080E090E0A1
:101440000E946F027BCFFC0188279927E8942191A5
:101450002032E9F3293010F02E30C8F32B3241F05E
:101460002D3239F4689404C00E94410A820F911D04
:10147000219120532A30C0F31EF4909581959F4FFF
:1014800008957AE0979F902D879F802D910D1124CC
:101490000895A1E21A2EAA1BBB1BFD010DC0AA1FB5
:1014A000BB1FEE1FFF1FA217B307E407F50720F0CD
:1014B000A21BB30BE40BF50B661F771F881F991F48
:1014C0001A9469F760957095809590959B01AC0191
:1014D000BD01CF010895EE0FFF1F0590F491E02D9F
:0614E0000994F894FFCF0F
:1014E6000000FFFFFFFF000000002C018C00B90088
:1014F6007901EA00C800DC000000000078048C00D6
:10150600AE02AD02503153503A005031503A0050BD
:101516003253503A005032503A00564D4450565FBE
:10152600317C315F564D4450560A00564D44505258
:101536005F00564D4450455F003A323A007C005FEA
:10154600564D445045000D0A00506C617965722075
:101556003100506C6179657220320057696E7300F4
:061566002A2A00202000EB
:00000001FF
