:100000000C9462000C948A000C948A000C948A0070
:100010000C948A000C948A000C948A000C948A0038
:100020000C948A000C948A000C948A000C948A0028
:100030000C948A000C948A000C948A000C948A0018
:100040000C94FB050C948A000C94C9050C94A30530
:100050000C948A000C948A000C948A000C948A00F8
:100060000C948A000C948A000000000024002700F1
:100070002A0000000000250028002B0000000000DE
:1000800023002600290004040404040404040202DA
:100090000202020203030303030301020408102007
:1000A0004080010204081020010204081020000012
:1000B0000008000201000003040700000000000027
:1000C0000000450611241FBECFEFD8E0DEBFCDBF34
:1000D00022E0A0E9B1E001C01D92AC39B207E1F71E
:1000E00011E0A0E0B1E0EAE0F5E102C005900D9278
:1000F000A039B107D9F710E0C2E6D0E004C02197DB
:10010000FE010E947D0AC136D107C9F70E94A106EF
:100110000C94830A0C940000FC01842F662331F0B8
:10012000208131812F5F3F4F318320838823F1F07D
:1001300020813181121613062CF04281538114164E
:100140001506A4F4215031093183208337FF0FC0F5
:10015000228133811216130654F44AE050E0518391
:10016000408321503109338322830895862F0895D7
:10017000AF92BF92CF92DF92EF92FF920F931F93B5
:10018000CF93DF936C017B018B01040F151FEB01F3
:100190005E01AE18BF08C017D10759F06991D601AA
:1001A000ED91FC910190F081E02DC6010995892B1C
:1001B00079F7C501DF91CF911F910F91FF90EF90DB
:1001C000DF90CF90BF90AF900895FC01538D448D88
:1001D000252F30E0842F90E0821B930B541710F0F2
:1001E000CF96089501970895FC01918D828D9817FF
:1001F00061F0A28DAE0FBF2FB11D5D968C91928DD7
:100200009F5F9F73928F90E008958FEF9FEF089507
:10021000FC01918D828D981731F0828DE80FF11DD0
:10022000858D90E008958FEF9FEF0895FC01918DEB
:10023000228D892F90E0805C9F4F821B91098F73E4
:100240009927089581EA91E00E94160121E0892B07
:1002500009F420E0822F089580E090E0892B29F0B6
:100260000E94220181110C9400000895FC01A48DCC
:10027000A80FB92FB11DA35ABF4F2C91848D90E0C8
:1002800001968F739927848FA689B7892C93A089AB
:10029000B1898C91837080648C93938D848D981335
:1002A00006C00288F389E02D80818F7D80830895C8
:1002B000EF92FF920F931F93CF93DF93EC0181E0B6
:1002C000888F9B8D8C8D98131AC0E889F98980815D
:1002D00085FF15C09FB7F894EE89FF896083E88990
:1002E000F98980818370806480839FBF81E090E082
:1002F000DF91CF911F910F91FF90EF900895F62E0F
:100300000B8D10E00F5F1F4F0F731127E02E8C8DA8
:100310008E110CC00FB607FCFACFE889F9898081ED
:1003200085FFF5CFCE010E943601F1CFEB8DEC0FAA
:10033000FD2FF11DE35AFF4FF0829FB7F8940B8F0A
:10034000EA89FB8980818062CFCFCF93DF93EC0174
:10035000888D8823B9F0AA89BB89E889F9898C91AD
:1003600085FD03C0808186FD0DC00FB607FCF7CF69
:100370008C9185FFF2CF808185FFEDCFCE010E9469
:100380003601E9CFDF91CF910895833081F028F4D1
:10039000813099F08230A9F008958730A9F0883033
:1003A000C9F08430B1F4809180008F7D03C08091CA
:1003B00080008F7780938000089584B58F7784BD07
:1003C000089584B58F7DFBCF8091B0008F778093A7
:1003D000B00008958091B0008F7DF9CFCF93DF9367
:1003E000282F30E0F901E255FF4F8491F901E656DC
:1003F000FF4FD491F901EA57FF4FC491CC23A1F0EC
:1004000081110E94C501EC2FF0E0EE0FFF1FE458B0
:10041000FF4FA591B491EC91ED2381E090E009F4B8
:1004200080E0DF91CF91089580E090E0FACF1F93B4
:10043000CF93DF93282F30E0F901E255FF4F8491ED
:10044000F901E656FF4FD491F901EA57FF4FC491E5
:10045000CC23A9F0162F81110E94C501EC2FF0E0EA
:10046000EE0FFF1FEE58FF4FA591B4918FB7F89490
:10047000EC91111108C0D095DE23DC938FBFDF9182
:10048000CF911F910895DE2BF8CF809109019091B3
:100490000A01892B41F461E08EE00E94170260E0BE
:1004A0008FE00C94170260E08EE00E94170261E07A
:1004B000F7CFCF93DF9390E0FC01E656FF4F2491F6
:1004C0008A579F4FFC0184918823D1F090E0880FD8
:1004D000991FFC01E859FF4FA591B491FC01EE581A
:1004E000FF4FC591D49161110EC09FB7F8948C91C4
:1004F000E22FE0958E238C932881E223E8839FBF2F
:10050000DF91CF9108958FB7F894EC91E22BEC93A3
:100510008FBFF6CF3FB7F8948091950190919601E7
:10052000A0919701B091980126B5A89B05C02F3FD7
:1005300019F00196A11DB11D3FBFBA2FA92F982F09
:100540008827BC01CD01620F711D811D911D42E004
:10055000660F771F881F991F4A95D1F708958F92CC
:100560009F92AF92BF92CF92DF92EF92FF924B0198
:100570005C010E948A026B017C010E948A026C1954
:100580007D098E099F09683E734081059105A8F396
:1005900021E0821A9108A108B10888EEC80E83E014
:1005A000D81EE11CF11C81149104A104B10429F7A7
:1005B000FF90EF90DF90CF90BF90AF909F908F9083
:1005C00008951F93CF93DF93182F60E00E941702C6
:1005D000C4E0D0E061E0812F0E94170264EF71E077
:1005E00080E090E00E94AF0260E0812F0E9417023D
:1005F00064EF71E080E090E00E94AF02219751F734
:10060000DF91CF911F9108952FB7F89460919101D8
:100610007091920180919301909194012FBF089560
:10062000089590E080E00895CF93DF93EC0160E0BF
:100630008E810E94170261E08E810E94170260E0A5
:100640008E810E9417028BE891E00197F1F7DF910C
:10065000CF910895CF92DF92EF92FF920F931F9365
:10066000CF93DF936C017C0187E0E80EF11CD0E0B2
:10067000C0E0062F10E0B8010C2E02C075956795FA
:100680000A94E2F76170F70181917F010E941702DD
:100690002196C430D10579F7C601DF91CF911F9122
:1006A0000F91FF90EF90DF90CF900C941403CF92B6
:1006B000DF92EF92FF920F931F93CF93DF93EC01A2
:1006C000F62E642F8C810E9417028D818F3F19F0C6
:1006D00060E00E9417020F2D10E08F8584FF25C077
:1006E0006E0187E0C80ED11CF12CE12CB8010E2C54
:1006F00002C0759567950A94E2F76170F6018191E1
:100700006F010E941702FFEFEF1AFF0A88E0E81658
:10071000F10461F7CE01DF91CF911F910F91FF900E
:10072000EF90DF90CF900C941403B80184E075959E
:1007300067958A95E1F7CE010E942A036F2DCE01BD
:10074000DF91CF911F910F91FF90EF90DF90CF90AD
:100750000C942A0341E00E94570381E090E0089541
:1007600040E0682F84E892E00C9457039091970240
:10077000691710F06FEF690FE62FF0E0EC57FD4FAF
:100780009489890F80680C94B00381E00E94B003C3
:100790008BE39FE10197F1F70895CF93DF938230C8
:1007A00029F490919302986090939302809397021A
:1007B0001092980280E48093990280E180939A02DB
:1007C00080E580939B0261E0809188020E9459023B
:1007D000809189028F3F19F061E00E94590261E027
:1007E00080918A020E945902C4E8D2E09E012458F6
:1007F00032408091930284FD0BC084E090E021960A
:100800002817390744F461E08E810E945902EECF27
:1008100088E090E0F4CF8BE39DE00197F1F760E092
:10082000809188020E94170260E080918A020E94F3
:100830001702809189028F3F19F060E00E94170231
:100840008091930284FD34C063E084E892E00E94CA
:100850002A03CBE4D6E4CE010197F1F763E084E804
:1008600092E00E942A032197F1F763E084E892E086
:100870000E942A0383E592E00197F1F762E084E8A1
:1008800092E00E942A038091930280620E94B0034A
:1008900084E0809394028CE00E94B0030E94C50320
:1008A00082E08093950286E0DF91CF910C94B003B3
:1008B00080620E94B0038BE496E40197F1F7809187
:1008C000930280620E94B00383E592E00197F1F702
:1008D0008091930280620E94B003D5CFEF92FF9285
:1008E0000F931F93CF93DF9300D000D0CDB7DEB727
:1008F00081EA91E00E94F40081EA91E00E94F40014
:100900008E010F5F1F4F78018A3341F0F801819308
:100910008F0181EA91E00E94F400F6CFC7010E94A6
:10092000350A182F81EA91E00E94F4008053990B58
:100930008230910520F4682F812F0E94170281EAEE
:1009400091E00E94F4008A3011F08D30C1F781EA05
:1009500091E00E9408018A3021F481EA91E00E942E
:10096000F4000F900F900F900F90DF91CF911F9197
:100970000F91FF90EF900895FB0101900020E9F79F
:100980003197AF01461B570BDC01ED91FC910280C2
:10099000F381E02D09948F929F92AF92BF92EF92D4
:1009A000FF920F931F93CF93DF93CDB7DEB7A1973D
:1009B0000FB6F894DEBF0FBECDBF7C01FA01CB01AC
:1009C00019A2223008F42AE08E010F5D1F4F822EFB
:1009D000912CB12CA12CBF01A50194010E945B0AAE
:1009E000F901CA016A300CF5605DD8016E938D0182
:1009F000232B242B252B79F790E080E0109721F012
:100A0000BD01C7010E94BC04A1960FB6F894DEBFD9
:100A10000FBECDBFDF91CF911F910F91FF90EF904F
:100A2000BF90AF909F908F900895695CDECFCF927A
:100A3000DF92EF92FF926C01990FEE08FF08F7FE2C
:100A400018C041E06DE284E892E00E945703442719
:100A50005527BA014C195D096E097F092AE084E81F
:100A600092E00E94CB040196FF90EF90DF90CF9030
:100A700008952AE0B701A60184E892E0FF90EF9084
:100A8000DF90CF900C94CB040C94BC04CF93DF93F5
:100A90000E94C50360E080E00E94B6036DE271E051
:100AA00084E892E00E944405C0E0D1E08B819C8103
:100AB0000E94170561E080E00E94B60363E371E0E5
:100AC00084E892E00E94440589819A810E9417057A
:100AD00060E08AE00E94B60368E371E084E892E097
:100AE0000E9444058F8198850E94170561E08AE085
:100AF0000E94B6036EE371E084E892E00E94440530
:100B00008D819E81DF91CF910C941705CF93DF9358
:100B1000EC0160E081E00E94B603BE0184E892E04F
:100B20000E94440560E08BE00E94B603BE0184E8A9
:100B300092E00E94440564EF71E080E090E0DF9174
:100B4000CF910C94AF021F920F920FB60F92112407
:100B50002F933F934F935F936F937F938F939F93C5
:100B6000AF93BF93EF93FF9381EA91E00E94360128
:100B7000FF91EF91BF91AF919F918F917F916F9175
:100B80005F914F913F912F910F900FBE0F901F904B
:100B900018951F920F920FB60F9211242F938F93D7
:100BA0009F93EF93FF93E091B101F091B2018081A7
:100BB000E091B701F091B80182FD1BC09081809156
:100BC000BA018F5F8F732091BB01821741F0E091D2
:100BD000BA01F0E0EF55FE4F958F8093BA01FF9177
:100BE000EF919F918F912F910F900FBE0F901F90BB
:100BF00018958081F4CF1F920F920FB60F92112497
:100C00002F933F938F939F93AF93BF9380919101C5
:100C100090919201A0919301B09194013091900133
:100C200023E0230F2D3758F50196A11DB11D209308
:100C300090018093910190939201A0939301B093BE
:100C400094018091950190919601A0919701B091A6
:100C500098010196A11DB11D809395019093960175
:100C6000A0939701B0939801BF91AF919F918F91FD
:100C70003F912F910F900FBE0F901F90189526E86F
:100C8000230F0296A11DB11DD2CFE1EAF1E013823C
:100C9000128288EE93E0A0E0B0E084839583A6837F
:100CA000B78383E191E09183808385EC90E0958721
:100CB000848784EC90E09787868780EC90E0918B26
:100CC000808B81EC90E0938B828B82EC90E0958B13
:100CD000848B86EC90E0978B868B118E128E138E10
:100CE000148EEEE3F2E016821782108611861286C9
:100CF00013861486158616861786108A118A128A1C
:100D0000138A148A158AE4E8F2E01382128285E2DB
:100D100091E0918380838CE084838FEF85838BE0E7
:100D2000868385E0878384E0808783E0818782E013
:100D300082871386148615861686178681E00C94A2
:100D4000CD03789484B5826084BD84B5816084BD10
:100D500085B5826085BD85B5816085BD80916E0059
:100D6000816080936E00109281008091810082608A
:100D700080938100809181008160809381008091C7
:100D800080008160809380008091B10084608093B6
:100D9000B1008091B00081608093B00080917A00B2
:100DA000846080937A0080917A00826080937A00D8
:100DB00080917A00816080937A0080917A008068C7
:100DC00080937A001092C1001092800210928102EA
:100DD00010928202109283021092400210924102FD
:100DE00010924202109243020E9404036B017C01A4
:100DF0004B015C0128EB820E2BE0921EA11CB11C62
:100E00000E9404036C157D058E059F0528F086164B
:100E10009706A806B906A0F768EE73E080E090E0B8
:100E20000E94AF02E091B101F091B20182E08083B3
:100E3000E091AD01F091AE011082E091AF01F0912F
:100E4000B00180E180831092B901E091B501F09189
:100E5000B60186E08083E091B301F091B401808116
:100E600080618083E091B301F091B401808188605A
:100E70008083E091B301F091B40180818068808328
:100E8000E091B301F091B40180818F7D80830E9455
:100E90000403609340027093410280934202909356
:100EA000430263E471E081EA91E00E9444050E94FC
:100EB00004036B017C014B015C013AE0830E911C41
:100EC000A11CB11C0E9404036C157D058E059F05B5
:100ED00028F086169706A806B906A0F781E0809349
:100EE00054020E9404036093400270934102809375
:100EF00042029093430264E571E081EA91E00E942E
:100F0000440560E087E00E94590260E088E00E94AA
:100F1000590260E089E00E94590260E08AE00E9484
:100F2000590261E08EE00E94590261E08FE00E9468
:100F3000590282E00E94CD030E9446050E944502AC
:100F400050E0252E50E0352E64EF462E5524539464
:100F5000612C712C0FEF1FEFC1E0D0E00E94040361
:100F6000672B682B692B09F408C10E940403C09009
:100F70009D01D0909E01E0909F01F090A0016C1522
:100F80007D058E059F0508F4FBC1C0909D01D090A2
:100F90009E01E0909F01F090A0019B01AC012C19F3
:100FA0003D094E095F0969017A013AEFC316D10480
:100FB000E104F10408F4E9C060939D0170939E017F
:100FC00080939F019093A00140924C0250924D0259
:100FD00060924E0270924F02109250021092510293
:100FE0001092520210925302809144029091450255
:100FF000A0914602B0914702809348029093490223
:10100000A0934A02B0934B020E94040360934402EF
:1010100070934502809346029093470281EA91E0E3
:101020000E940801843611F40E946E040E94040399
:101030006093400270934102809342029093430276
:101040000E9404036B017C016BE571E081EA91E091
:101050000E9444052AE041E050E060E070E081EA4F
:1010600091E00E94CB0462E671E081EA91E00E9487
:1010700044052AE0B701A60181EA91E00E94CB0471
:1010800064E671E081EA91E00E94440580914402A7
:1010900090914502A0914602B0914702B701A60186
:1010A000481B590B6A0B7B0B2AE081EA91E00E94F6
:1010B000CB0464E671E081EA91E00E94440540912E
:1010C000440250914502609146027091470280911E
:1010D000480290914902A0914A02B0914B02481BEC
:1010E000590B6A0B7B0B2AE081EA91E00E94CB044A
:1010F00066E671E081EA91E00E9444050E940403E3
:10110000AB01BC012AE081EA91E00E94CB0468E6D1
:1011100071E081EA91E00E94BC046FE671E081EA2F
:1011200091E00E94BC040E9404036B017C014B010E
:101130005C0142E0840E911CA11CB11C0E940403BE
:101140006C157D058E059F0528F086169706A80666
:10115000B906A0F781EA91E00E940801843611F4F3
:101160000E946E040E94040360934402709345023F
:10117000809346029093470208C00E9404036230A5
:1011800071058105910508F0F0CE87E00E94EE011F
:1011900020919901D12C2817190639F0DD24D39418
:1011A000892B09F4D12CD092990188E00E94EE019C
:1011B00020919A01C12C2817190639F0CC24C39428
:1011C000892B09F4C12CC0929A0189E00E94EE019A
:1011D00020919B01F12C2817190639F0FF24F39474
:1011E000892B09F4F12CF0929B018AE00E94EE0118
:1011F00020919C01E12C2817190639F0EE24E39484
:10120000892B09F4E12CE0929C014C2D6D2D81E09D
:1012100091E00E948C00D82E4E2D6F2D85E091E03C
:101220000E948C00811103C0DD2009F49DC06091F3
:101230000101709102014091050150910601209138
:101240000301309104016B30710524F44B305105DA
:101250000CF4B9C0CB01841B950B97FF03C091958B
:101260008195910902970CF4AEC0461757070CF010
:1012700090C02F5F3F4F30930401209303011092E1
:101280000C0110920B0110920201109201011092B8
:1012900006011092050180910301909104010397CA
:1012A00009F085C010920E0110920D01E0900D0121
:1012B000F0900E015FEFE516F50609F4A6C060E0B8
:1012C0008EE00E94170260E08FE00E9417020E94E9
:1012D000C50360E083E00E94B60380910D01909108
:1012E0000E0162E771E0892B11F06BE771E084E891
:1012F00092E00E94440561E085E00E94B60364E844
:1013000071E084E892E00E94440584E0E82EF12C2C
:1013100089E891E00E9486058CE891E00E948605AC
:1013200081E0E81AF108A1F7109202011092010180
:10133000109206011092050110920401109203010F
:10134000109208011092070110920A0110920901EF
:1013500010930C0100930B0110930E0100930D01EB
:101360000E9446050E9445022114310409F4F6CD7D
:101370000E942201882309F4F1CD0E940000EECDE5
:1013800060939D0170939E0180939F019093A001B3
:10139000FCCD80910701909108010196909308017E
:1013A00080930701D0930C01C0930B016CCF809107
:1013B000070190910801039709F078CFD0930E01AF
:1013C000C0930D0173CFCA01860F971FE0910701EB
:1013D000F09108012E0F3F1F217033276A307105ED
:1013E00064F04A3051054CF0232B61F48170992749
:1013F00090930A018093090159CF97FD0196959525
:101400008795F2CF80959095F1CF80910B019091C7
:101410000C010196F9F00E94460580910B01909114
:101420000C01009769F460E08FE00E9417028EE0E3
:1014300090E00E94E102F0920C01E0920B0192CF49
:10144000019709F08FCF60E08EE00E9417028FE0D5
:1014500090E0EFCF0E9446050E9445026AEF70E0DF
:1014600080E090E00E94AF027FCFFC01882799279F
:10147000E89421912032E9F3293010F02E30C8F39E
:101480002B3241F02D3239F4689404C00E94530A83
:10149000820F911D219120532A30C0F31EF49095A4
:1014A00081959F4F08957AE0979F902D879F802D7B
:1014B000910D11240895A1E21A2EAA1BBB1BFD0158
:1014C0000DC0AA1FBB1FEE1FFF1FA217B307E40723
:1014D000F50720F0A21BB30BE40BF50B661F771F7B
:1014E000881F991F1A9469F760957095809590955B
:1014F0009B01AC01BD01CF010895EE0FFF1F0590C8
:0A150000F491E02D0994F894FFCF58
:10150A000000000000000000000000FFFFFFFF00D5
:10151A000000005801B800E500A5011601F4000812
:10152A000100000000AA03B8001103100350315350
:10153A00503A005031503A00503253503A0050322B
:10154A00503A00564D4450565F317C315F564D44F7
:10155A0050560A00564D4450525F00564D4450456D
:10156A005F003A323A007C005F564D445045000D08
:10157A000A00506C61796572203100506C6179659E
:10158A007220320057696E73002A2A002020000058
:00000001FF
